{
  "address": "0x8ddf20EA494b42f835AC52E2A0B705CEFa722f6d",
  "abi": [
    {
      "anonymous": false,
      "inputs": [
        {
          "indexed": true,
          "internalType": "address",
          "name": "previousOwner",
          "type": "address"
        },
        {
          "indexed": true,
          "internalType": "address",
          "name": "newOwner",
          "type": "address"
        }
      ],
      "name": "OwnershipTransferred",
      "type": "event"
    },
    {
      "inputs": [],
      "name": "owner",
      "outputs": [
        {
          "internalType": "address",
          "name": "",
          "type": "address"
        }
      ],
      "stateMutability": "view",
      "type": "function"
    },
    {
      "inputs": [],
      "name": "renounceOwnership",
      "outputs": [],
      "stateMutability": "nonpayable",
      "type": "function"
    },
    {
      "inputs": [],
      "name": "totalAsserts",
      "outputs": [
        {
          "internalType": "uint256",
          "name": "",
          "type": "uint256"
        }
      ],
      "stateMutability": "view",
      "type": "function"
    },
    {
      "inputs": [
        {
          "internalType": "address",
          "name": "_to",
          "type": "address"
        },
        {
          "internalType": "uint256",
          "name": "_amount",
          "type": "uint256"
        }
      ],
      "name": "transferFunds",
      "outputs": [],
      "stateMutability": "nonpayable",
      "type": "function"
    },
    {
      "inputs": [
        {
          "internalType": "address",
          "name": "newOwner",
          "type": "address"
        }
      ],
      "name": "transferOwnership",
      "outputs": [],
      "stateMutability": "nonpayable",
      "type": "function"
    },
    {
      "stateMutability": "payable",
      "type": "receive"
    }
  ],
  "transactionHash": "0x289304a8efb200efdd9d9572d10fb72d87ba5e55f6a60697b206df1f386dc516",
  "args": [],
  "numDeployments": 1,
  "solcInputHash": "c4930c37b00f122cea7b4da2e0b6c441",
  "bytecode": "0x608060405234801561001057600080fd5b5061001a3361001f565b61006f565b600080546001600160a01b038381166001600160a01b0319831681178455604051919092169283917f8be0079c531659141344cd1fd0a4f28419497f9722a3daafe3b4186f6b6457e09190a35050565b6103d28061007e6000396000f3fe60806040526004361061004e5760003560e01c8063715018a61461005a5780638da5cb5b14610071578063990dc9db1461009e578063e5c65d30146100be578063f2fde38b146100d957600080fd5b3661005557005b600080fd5b34801561006657600080fd5b5061006f6100f9565b005b34801561007d57600080fd5b506000546040516001600160a01b0390911681526020015b60405180910390f35b3480156100aa57600080fd5b5061006f6100b9366004610350565b61010d565b3480156100ca57600080fd5b50604051478152602001610095565b3480156100e557600080fd5b5061006f6100f436600461037a565b610211565b61010161028a565b61010b60006102e4565b565b61011561028a565b478111156101785760405162461bcd60e51b815260206004820152602560248201527f5468657265206172656e277420656e6f7567682066756e647320746f20776974604482015264686472617760d81b60648201526084015b60405180910390fd5b6000826001600160a01b03168260405160006040518083038185875af1925050503d80600081146101c5576040519150601f19603f3d011682016040523d82523d6000602084013e6101ca565b606091505b505090508061020c5760405162461bcd60e51b815260206004820152600e60248201526d151c985b99995c881c995d995c9d60921b604482015260640161016f565b505050565b61021961028a565b6001600160a01b03811661027e5760405162461bcd60e51b815260206004820152602660248201527f4f776e61626c653a206e6577206f776e657220697320746865207a65726f206160448201526564647265737360d01b606482015260840161016f565b610287816102e4565b50565b6000546001600160a01b0316331461010b5760405162461bcd60e51b815260206004820181905260248201527f4f776e61626c653a2063616c6c6572206973206e6f7420746865206f776e6572604482015260640161016f565b600080546001600160a01b038381166001600160a01b0319831681178455604051919092169283917f8be0079c531659141344cd1fd0a4f28419497f9722a3daafe3b4186f6b6457e09190a35050565b80356001600160a01b038116811461034b57600080fd5b919050565b6000806040838503121561036357600080fd5b61036c83610334565b946020939093013593505050565b60006020828403121561038c57600080fd5b61039582610334565b939250505056fea2646970667358221220ed9c08c2613b06e3404eb0bebfcb659940b2b1750861ffab3426c34fe819696364736f6c63430008110033",
  "devdoc": {
    "kind": "dev",
    "methods": {
      "owner()": {
        "details": "Returns the address of the current owner."
      },
      "renounceOwnership()": {
        "details": "Leaves the contract without owner. It will not be possible to call `onlyOwner` functions anymore. Can only be called by the current owner. NOTE: Renouncing ownership will leave the contract without an owner, thereby removing any functionality that is only available to the owner."
      },
      "transferOwnership(address)": {
        "details": "Transfers ownership of the contract to a new account (`newOwner`). Can only be called by the current owner."
      }
    },
    "version": 1
  },
  "userdoc": {
    "kind": "user",
    "methods": {},
    "version": 1
  },
  "storageLayout": {
    "storage": [
      {
        "astId": 396,
        "contract": "contracts/Funds.sol:Funds",
        "label": "_owner",
        "offset": 0,
        "slot": "0",
        "type": "t_address"
      }
    ],
    "types": {
      "t_address": {
        "encoding": "inplace",
        "label": "address",
        "numberOfBytes": "20"
      }
    }
  }
}